:100000000C94A9000C94D1000C94D1000C94D10054
:100010000C94D1000C94D1000C94D1000C94D1001C
:100020000C94D1000C94D1000C94D1000C94D1000C
:100030000C94D1000C94D1000C94D1000C94D100FC
:100040000C9415080C94D1000C94D1000C94D100A0
:100050000C94D1000C94D1000C94D1000C94D100DC
:100060000C94DC040C94D1001E04220428042C04FB
:100070003004340438043A043C043E0440049F0431
:100080008B048F04930497049B04BB04BF04C30434
:10009000C704CB04CF04B104B304B5047404B90499
:1000A000BB04BF04C304C704CB04CF04D5048B0432
:1000B0008F04930474049B04BB04BF04C304C704EB
:1000C000CB04CF049F048B048F04930497049B04F8
:1000D000BB04BF04C304C704CB04CF049F04B10412
:1000E000B304B504B704B904BB04BF04C304C70414
:1000F000CB04CF04D50400000000240027002A0010
:1001000000000000250028002B0000000000230054
:100110002600290004040404040404040202020268
:1001200002020303030303030102040810204080BA
:100130000102040810200102040810200000000839
:10014000000201000003040700000000000000009E
:10015000150B11241FBECFEFD8E0DEBFCDBF11E0DD
:10016000A0E0B1E0ECEEF9E102C005900D92A23101
:10017000B107D9F721E0A2E1B1E001C01D92AA3F89
:10018000B207E1F710E0C9EAD0E004C02197FE0110
:100190000E94D50CC83AD107C9F70E945F080C9499
:1001A000F40C0C94000008950895CF92DF92EF9222
:1001B000FF920F931F93CF93DF936C017A018B0112
:1001C000C0E0D0E0CE15DF0581F0D8016D918D0142
:1001D000D601ED91FC910190F081E02DC6010995C9
:1001E000892B11F02196EECF7E01C701DF91CF91CF
:1001F0001F910F91FF90EF90DF90CF90089585EDC4
:100200008093BC008091BC0084FDFCCF1092C001A3
:10021000089540915501262F30E0240F311D2132E1
:100220003105DCF42091C0012430C9F4FC0180E0E8
:1002300090E0861758F4309155012191DC01AB5CB8
:10024000BE4FA30FB11D2C930196F3CF80915501A2
:10025000680F6093550180E0089581E0089582E081
:1002600008950895E0917D0180917C01E81730F4B4
:10027000F0E0EB5EFE4F808190E008958FEF9FEFFE
:10028000089590917D0180917C01981750F4E92F99
:10029000F0E0EB5EFE4F208130E09F5F90937D01A8
:1002A00002C02FEF3FEFC901089580917C0190E0DB
:1002B00020917D01821B91090895CF92DF92EF92E8
:1002C000FF920F931F93CF93DF937C01CB018A01A1
:1002D0002091CD01222389F0EB016B01C40ED51EC4
:1002E000CC15DD0569F06991D701ED91FC91019084
:1002F000F081E02DC7010995F3CF642F0E94090119
:10030000C801DF91CF911F910F91FF90EF90DF9087
:10031000CF900895CF93DF931F92CDB7DEB7698357
:100320002091CD012223D1F02091F001203240F024
:1003300021E030E0FC013383228380E090E015C0AF
:100340008091CE01E82FF0E0E153FE4F9981908338
:100350008F5F8093CE018093F00105C061E0CE01F4
:1003600001960E94090181E090E00F90DF91CF910A
:100370000895089580E090E00895109295011092FC
:10038000940180918A0190918B0101968C339105A3
:100390002CF490938B0180938A01089510928B0125
:1003A00010928A018091800190918101019688319B
:1003B00091052CF49093810180938001089510920F
:1003C0008101109280010895CF92DF92EF92FF9207
:1003D000C12CD12C90E2E92E91E4F92EC701B6018F
:1003E0000E94980B89E00E94700722E630E140E805
:1003F0005FE3C701B6010E94480C6B017C0120E05D
:1004000030E04AE753E40E94930B87FDE7CFC12C0D
:10041000D12C8AE7E82E83E4F82EC701B6010E94AA
:10042000980B89E00E9470072AE037ED43EA5BE30E
:10043000C701B6010E94260B6B017C0120E030E071
:1004400048E453E40E94430C18163CF3FF90EF90ED
:10045000DF90CF900895CF92DF92EF92FF92C12C60
:10046000D12C90E2E92E91E4F92EC701B6010E9449
:10047000980B89E00E94700725ED39E040E85FE3C2
:10048000C701B6010E94480C6B017C0120E030E0FE
:100490004AE753E40E94930B87FDE7CFC12CD12C90
:1004A0008AE7E82E83E4F82EC701B6010E94980B74
:1004B00089E00E9470072FE632E143E85BE3C70161
:1004C000B6010E94260B6B017C0120E030E048E47D
:1004D00053E40E94430C18163CF3FF90EF90DF901A
:1004E000CF9008951092120110927F0110927E0118
:1004F00060E080E00E94DD0660E081E00C94DD06B3
:100500000E94EF0C81E08093CD0188E68093EF019B
:100510001092CE011092F00160E081EC91E00E9417
:100520008A0181E00E9458068091C0018111FCCFB0
:1005300081E08093C0018093BF019FEF9093BE0143
:100540001092BD0192E09093BC0180939B01809139
:100550009B01806D80939B0180919A01813061F4B1
:1005600010929A0180919B018093BB008091BC0006
:1005700083FDF8CF85EC01C085EE8093BC008091AF
:10058000C0018130E1F38091BD01833018F4909176
:10059000BD0101C093E0ACE9B1E0E5E1F1E080E04C
:1005A000891721F02D9121938F5FFACF10927D0151
:1005B00080937C0181EC91E00E944101982F9695F7
:1005C000969596959E70292F220F220F920F8F706D
:1005D000890F90E0909395018093940181EC91E0D4
:1005E0000E944101982F92959F708F702AE0929FF0
:1005F000800D112490E090938B0180938A0181EC0F
:1006000091E00E944101982F969596959695967047
:10061000292F220F220F920F8F70890F90E0909355
:100620008101809380010895CF9381E08093CD0173
:1006300088E68093EF011092CE011092F00160E005
:1006400081EC91E00E948A0180919401CAE06C2FB4
:100650000E94B50C692F20E1829F600D112481EC6E
:1006600091E00E948A0180918A016C2F0E94B50C52
:10067000692F20E1829F600D112481EC91E00E949E
:100680008A01809180016C2F0E94B50C692F20E1B6
:10069000829F600D112481EC91E00E948A0181E02B
:1006A000CF910C94580640917E0166E087E00E944D
:1006B0000C0740917F0166E087E00E940C074091A3
:1006C000120166E087E00E940C0761E088E00E946A
:1006D000DD0662E070E080E090E00E94CF0760E01D
:1006E00088E00C94DD06CF93DF930E948202809114
:1006F000800190918101181619062CF49093140131
:100700008093130106C02CE030E030931401209355
:1007100013019C012D5031092B30310528F40C9721
:1007200090931401809313010E94720280918A01B8
:1007300090918B01EC012597C530D10528F42091CB
:1007400012012064209312019C012A5031092530A6
:10075000310528F4209112012160209312019C019F
:100760002F5031092530310528F4209112012460E1
:1007700020931201DC015497A530B10528F4209193
:1007800012012360209312019C0129513109253067
:10079000310528F420911201226420931201BC013A
:1007A0006E5171096530710528F4209112012260A3
:1007B00020931201AC01435251094530510528F4F0
:1007C000209112012264209312019C0128523109C8
:1007D0002530310528F42091120123602093120165
:1007E0009C012D5231092530310528F42091120148
:1007F000246020931201E0911301F09114019C01F7
:10080000225331092530310520F480911201816095
:1008100006C08733910534F0809112018064809383
:10082000120135C005979CF53197EB30F10558F56D
:10083000EC5CFF4F80917E010C94D50C80917F0180
:10084000826003C080917F01846080937F011BC020
:1008500080917F018860F9CF80917F018064F5CF1E
:1008600080917F018062F1CF80917F018061EDCF27
:10087000816007C0826005C0846003C0886001C0D9
:10088000806480937E0180917E0180618BC02F9770
:1008900070F4809112018061809312013197EC30E5
:1008A000F10508F085C0E15CFF4F0C94D50C1A9758
:1008B00078F480917F01982F916090937F01319718
:1008C000EC30F10508F074C0E55BFF4F0C94D50CDB
:1008D0006530710578F43197EC30F10508F068C0A7
:1008E000E95AFF4F0C94D50C8091120180648093DB
:1008F00012015EC04A30510530F5809112018061CD
:10090000809312013197EC30F10508F051C0ED5998
:10091000FF4F0C94D50C80917F01846047C080917B
:100920007F01886043C080917F0180643FC08091D7
:100930007F0180623BC080917F01806137C08091E0
:100940007F01826033C080917F01982F91609093E6
:100950007F013197EC30F10558F5E159FF4F0C94C8
:10096000D50C856023C0896021C081641FC081626D
:100970001DC081611BC080917E01816013C0809188
:100980007E0182600FC080917E0184600BC08091E7
:100990007E01886007C080917E01806403C08091E1
:1009A0007E01806280937E0103C0836080937F011B
:1009B000DF91CF910C9453031F920F920FB60F92B9
:1009C00011242F933F934F935F936F937F938F9354
:1009D0009F93AF93BF93EF93FF938091B900887F6C
:1009E000803609F49CC068F5883209F45BC090F445
:1009F000803109F454C038F4882309F4F6C08830F3
:100A000009F44DC0F6C0883109F44CC0803209F4B5
:100A10005DC0EFC0803409F468C048F4803309F445
:100A200055C0883309F0E5C08093BE01D8C0803539
:100A300009F44FC0883509F45DC0883409F0D9C085
:100A4000D6C0883909F4C7C0A8F4883709F467C04C
:100A500038F4883609F463C0803709F460C0C9C02F
:100A6000883809F4B8C0803909F45FC0803809F0CB
:100A7000C0C05BC0803B09F486C038F4803A09F4FA
:100A800066C0883A09F47FC0B4C0803C09F4A7C0AE
:100A9000883C09F4A4C0883B09F48AC0AAC08091AC
:100AA0009B0110C09091BD018091BC01981770F519
:100AB000E091BD0181E08E0F8093BD01F0E0E4562E
:100AC000FE4F80818093BB0085EC86C08093BE0181
:100AD0008EC0E091BD0181E08E0F8093BD018091B9
:100AE000BB00F0E0E456FE4F80839091BD01809101
:100AF000BC016EC0E091BD0181E08E0F8093BD010D
:100B00008091BB00F0E0E456FE4F80838091BF01EE
:100B100081116DC081E080939A0184EA61C083E015
:100B20008093C00110927701CFCF809177018032FE
:100B300008F051C0E091770181E08E0F809377013A
:100B40008091BB00F0E0E95AFE4F8083BDCF85EC79
:100B50008093BC001092C00180917701803230F404
:100B6000E0917701F0E0E95AFE4F10826091770141
:100B700070E0E0917801F091790187E591E00995C5
:100B80001092770136C084E08093C0011092560124
:100B900010925501E0917A01F0917B0109958091C5
:100BA0005501811105C081E08093550110923501F6
:100BB000E091560181E08E0F80935601F0E0EB5CEE
:100BC000FE4F80818093BB0090915601809155012A
:100BD000981708F479CF85E88093BC000AC085ECAB
:100BE0008093BC001092C00104C01092BE010E940C
:100BF000FF00FF91EF91BF91AF919F918F917F91F6
:100C00006F915F914F913F912F910F900FBE0F9079
:100C10001F901895833081F028F4813099F082304C
:100C2000A1F008958730A9F08830B9F08430D1F46C
:100C3000809180008F7D03C0809180008F778093AA
:100C40008000089584B58F7702C084B58F7D84BD00
:100C500008958091B0008F7703C08091B0008F7DA0
:100C60008093B00008953FB7F8948091F601909179
:100C7000F701A091F801B091F90126B5A89B05C034
:100C80002F3F19F00196A11DB11D3FBFBA2FA92F0B
:100C9000982F8827820F911DA11DB11DBC01CD0188
:100CA00042E0660F771F881F991F4A95D1F7089574
:100CB000282F3091F001313208F04AC08091C001F4
:100CC0008111FCCF9091EF0142E04093C00120934D
:100CD000BF012FEF2093BE011092BD013093BC01E4
:100CE000EFECF1E0ACE9B1E020E0321721F0419106
:100CF0004D932F5FFACF10929B0120919B01990F8A
:100D0000922B90939B0190919A01913061F41092F3
:100D10009A0190919B019093BB009091BC0093FD30
:100D2000F8CF95EC01C095EE9093BC009091C00176
:100D30009230E1F39091BE019F3F79F08091BE0126
:100D4000803241F08091BE01803331F084E005C0F3
:100D500081E003C082E001C083E01092CE011092D6
:100D6000F0011092CD010895CF93DF93282F30E04A
:100D7000F901E45CFE4F8491F901E85DFE4FD491E6
:100D8000F901EC5EFE4FC491CC2391F081110E94D9
:100D90000A06EC2FF0E0EE0FFF1FE65FFE4FA59175
:100DA000B491EC91ED2381E090E021F480E002C069
:100DB00080E090E0DF91CF9108951F93CF93DF9370
:100DC000282F30E0F901E45CFE4F8491F901E85DE1
:100DD000FE4FD491F901EC5EFE4FC491CC23C1F0DB
:100DE000162F81110E940A06EC2FF0E0EE0FFF1F74
:100DF000E050FF4FA591B4919FB7F894111104C032
:100E00008C91D095D82302C0EC91DE2BDC939FBF50
:100E1000DF91CF911F910895EF92FF920F931F934F
:100E2000CF93DF93E82EF62EC7E0D0E0042F10E03A
:100E3000B8010C2E02C0759567950A94E2F76170AF
:100E40008E2D0E94DD0661E08F2D0E94DD0660E0A0
:100E50008F2D0E94DD06219758F7DF91CF911F91CA
:100E60000F91FF90EF900895CF93DF9390E0FC01F6
:100E7000E85DFE4F2491FC01EC5EFE4F84918823D7
:100E800061F190E0880F991FFC01EA50FF4FC59176
:100E9000D491FC01E050FF4FA591B491611109C0BC
:100EA0009FB7F8948881209582238883EC912E2324
:100EB0000BC0623061F49FB7F8948881322F30956F
:100EC00083238883EC912E2B2C939FBF06C08FB772
:100ED000F894E8812E2B28838FBFDF91CF9108955E
:100EE0001F93CF93DF93182FEB0161E00E9434072B
:100EF000209711F460E004C0CF3FD10539F461E0E0
:100F0000812FDF91CF911F910C94DD06E12FF0E04E
:100F1000E45CFE4FE491E330F9F048F4E130B9F0DD
:100F2000E230A1F584B5806284BDC8BD34C0E7302D
:100F3000E9F0E83019F1E43049F5809180008062F1
:100F400080938000D0938B00C0938A0024C084B526
:100F5000806884BDC7BD1FC0809180008068809379
:100F60008000D0938900C093880015C08091B000A4
:100F700080688093B000C093B3000DC08091B00032
:100F800080628093B000C093B40005C0C038D10522
:100F90000CF0B5CFAFCFDF91CF911F9108958F9215
:100FA0009F92AF92BF92CF92DF92EF92FF926B012E
:100FB0007C010E9433064B015C01C114D104E104A1
:100FC000F104F1F00E943306DC01CB018819990984
:100FD000AA09BB09883E9340A105B10570F321E041
:100FE000C21AD108E108F10888EE880E83E0981E45
:100FF000A11CB11CC114D104E104F10419F7DDCF27
:10100000FF90EF90DF90CF90BF90AF909F908F9028
:1010100008952FB7F8946091F2017091F3018091D7
:10102000F4019091F5012FBF08951F920F920FB612
:101030000F9211242F933F938F939F93AF93BF935E
:101040008091F2019091F301A091F401B091F5012A
:101050003091F10123E0230F2D3720F40196A11DDB
:10106000B11D05C026E8230F0296A11DB11D2093D6
:10107000F1018093F2019093F301A093F401B093F6
:10108000F5018091F6019091F701A091F801B091DE
:10109000F9010196A11DB11D8093F6019093F7010E
:1010A000A093F801B093F901BF91AF919F918F91F7
:1010B0003F912F910F900FBE0F901F90189578942D
:1010C00084B5826084BD84B5816084BD85B582604D
:1010D00085BD85B5816085BD80916E0081608093FE
:1010E0006E00109281008091810082608093810067
:1010F0008091810081608093810080918000816077
:10110000809380008091B10084608093B1008091D1
:10111000B00081608093B00080917A0084608093F9
:101120007A0080917A00826080937A0080917A00C0
:10113000816080937A0080917A00806880937A0041
:101140001092C10010927D0110927C011092CE018C
:101150001092F0011092C00181E08093BF011092C3
:101160009A0161E082E10E94DD0661E083E10E9474
:10117000DD068091B9008E7F8093B9008091B9001F
:101180008D7F8093B90088E48093B80085E48093D4
:10119000BC0083ED90E090937B0180937A0184ED15
:1011A00090E0909379018093780161E086E00E945D
:1011B000340761E087E00E94340761E088E00E9424
:1011C000340762E082E00E94340762E083E00E941C
:1011D000340761E089E00E94340761E089E00E9401
:1011E000DD060E9409086093960170939701809331
:1011F0009801909399010E9482020E9472020E94BB
:1012000072020E94530380917F01826080937F016C
:101210000E9453030E94E40164E670E080E090E0E5
:101220000E94CF070E9472020E94530380917F01A7
:10123000846080937F010E9453030E94E40164E66E
:1012400070E080E090E00E94CF070E9472020E944E
:10125000530380917F01886080937F010E94530334
:101260000E94E40164E670E080E090E00E94CF0715
:101270000E9472020E94530380917F0180648093D8
:101280007F010E9453030E94E40164E670E080E065
:1012900090E00E94CF070E9472020E945303809147
:1012A0007F01806280937F010E9453030E94E401CA
:1012B00064E670E080E090E00E94CF070E94720236
:1012C0000E94530380917F01806180937F010E947F
:1012D00053030E94E40164E670E080E090E00E9425
:1012E000CF070E9472020E94530380917E018160A9
:1012F00080937E010E9453030E94E40164E670E043
:1013000080E090E00E94CF070E9472020E94530387
:1013100080917E01826080937E010E9453030E942F
:10132000E40164E670E080E090E00E94CF070E9454
:1013300072020E94530380917E01846080937E013B
:101340000E9453030E94E40164E670E080E090E0B4
:101350000E94CF070E9472020E94530380917E0177
:10136000886080937E010E9453030E94E4010E94E2
:10137000720225E0E22EF12C35E0932E47E3C42ED5
:10138000D12C5CE0A52EB12C82E00E94B4068C0129
:1013900083E00E94B406EC010E9409084090960187
:1013A000509097016090980170909901DC01CB01F9
:1013B00084199509A609B709883E9340A105B1058E
:1013C00098F00E94090860939601709397018093AA
:1013D00098019093990180919401909195010196C3
:1013E000909395018093940180919401909195013F
:1013F000CC9799F080919201909193010817190769
:1014000009F44EC00E94090860938E0170938F0109
:10141000809390019093910143C00E94BD010E946E
:101420007303412C512C90E2692E91E4792EC30173
:10143000B2010E94980B89E00E9470072EE836E006
:1014400040E85FE3C301B2010E94480C2B013C015C
:1014500020E030E04AE753E40E94930B87FDE7CF9A
:10146000412C512C8AE7682E83E4782EC301B20107
:101470000E94980B89E00E9470072FE632E143E852
:101480005AE3C301B2010E94260B2B013C0120E06C
:1014900030E048E453E40E94430C18163CF3AACF12
:1014A0000E94090840908E0150908F016090900139
:1014B00070909101DC01CB0184199509A609B70947
:1014C00085369105A105B105A0F180918C0190911F
:1014D0008D010817190769F110938D0100938C0194
:1014E0000130110531F580918A0190918B01B7018E
:1014F0000E94C10C969EC001979E900D11240796E4
:1015000090938B0180938A0110929501109294011F
:101510000E94BD0180919401909195010196909354
:101520009501809394010E9414030E9473030E940A
:101530002B028091880190918901C817D90751F039
:101540000E9409086093840170938501809386014D
:10155000909387010E940908409084015090850172
:101560006090860170908701DC01CB018419950998
:10157000A609B70985369105A105B10508F44CC047
:101580008091820190918301C817D90709F444C062
:10159000D0938301C0938201C130D105E9F58091D8
:1015A0008A0190918B01B7010E94C10C61507109B1
:1015B000969EC001979E900D112490938B0180936D
:1015C0008A01109295011092940197FF14C0D09255
:1015D0008B01C0928A0180918001909181010197D5
:1015E00097FD05C0909381018093800104C0B09263
:1015F0008101A09280010E94BD018091940190918F
:101600009501019690939501809394010E94140393
:101610000E9473030E942B02109393010093920186
:10162000D0938901C0938801AFCEE1ECF1E0138241
:10163000128288EE93E0A0E0B0E084839583A683D5
:10164000B78384E091E09183808308955058BB274D
:10165000AA270E943E0B0C94090C0E94FB0B38F049
:101660000E94020C20F039F49F3F19F426F40C94E8
:10167000F80B0EF4E095E7FB0C94F20BE92F0E94B7
:101680001A0C58F3BA17620773078407950720F0FE
:1016900079F4A6F50C943C0C0EF4E0950B2EBA2FC1
:1016A000A02D0B01B90190010C01CA01A001112468
:1016B000FF27591B99F0593F50F4503E68F11A1614
:1016C000F040A22F232F342F4427585FF3CF4695A5
:1016D00037952795A795F0405395C9F77EF41F16C7
:1016E000BA0B620B730B840BBAF09150A1F0FF0F91
:1016F000BB1F661F771F881FC2F70EC0BA0F621F7D
:10170000731F841F48F4879577956795B795F7956C
:101710009E3F08F0B0CF9395880F08F09927EE0F01
:101720009795879508950E94CE0B08F481E008955F
:101730000E949F0B6894B1110C943D0C08950E9477
:10174000220C88F09F5798F0B92F9927B751B0F025
:10175000E1F0660F771F881F991F1AF0BA95C9F735
:1017600014C0B13091F00E943C0CB1E008950C948B
:101770003C0C672F782F8827B85F39F0B93FCCF33E
:10178000869577956795B395D9F73EF490958095B2
:10179000709561957F4F8F4F9F4F0895990F000867
:1017A000550FAA0BE0E8FEEF16161706E807F90733
:1017B000C0F012161306E407F50798F0621B730BCE
:1017C000840B950B39F40A2661F0232B242B252B4F
:1017D00021F408950A2609F4A140A6958FEF811DF2
:1017E000811D089597F99F6780E870E060E0089593
:1017F0009FEF80EC089500240A9416161706180629
:101800000906089500240A94121613061406050604
:101810000895092E0394000C11F4882352F0BB0F95
:1018200040F4BF2B11F460FF04C06F5F7F4F8F4FF8
:101830009F4F089557FD9058440F551F59F05F3F33
:1018400071F04795880F97FB991F61F09F3F79F0E2
:1018500087950895121613061406551FF2CF469564
:10186000F1DF08C0161617061806991FF1CF8695E6
:101870007105610508940895E894BB2766277727CA
:10188000CB0197F908950E94CE0B08F48FEF0895CD
:101890000E945B0C0C94090C0E94FB0B38F00E9418
:1018A000020C20F0952311F00C94F20B0C94F80B21
:1018B00011240C943D0C0E941A0C70F3959FC1F3F7
:1018C000950F50E0551F629FF001729FBB27F00DEE
:1018D000B11D639FAA27F00DB11DAA1F649F662743
:1018E000B00DA11D661F829F2227B00DA11D621F92
:1018F000739FB00DA11D621F839FA00D611D221F4C
:10190000749F3327A00D611D231F849F600D211D2F
:10191000822F762F6A2F11249F5750409AF0F1F0B2
:1019200088234AF0EE0FFF1FBB1F661F771F881F1B
:1019300091505040A9F79E3F510580F00C94F20B56
:101940000C943D0C5F3FE4F3983ED4F38695779575
:101950006795B795F795E7959F5FC1F7FE2B880FC1
:10196000911D9695879597F90895991B79E004C084
:10197000991F961708F0961B881F7A95C9F78095CE
:10198000089597FB072E16F4009407D077FD09D031
:101990000E94DB0C07FC05D03EF4909581959F4F8B
:1019A0000895709561957F4F0895EE0FFF1F059084
:1019B000F491E02D0994AA1BBB1B51E107C0AA1F9B
:1019C000BB1FA617B70710F0A61BB70B881F991FE0
:1019D0005A95A9F780959095BC01CD01089581E0B5
:0C19E00090E0F8940C94F40CF894FFCF05
:1019EC00000000008A015D01BA013101550141017D
:0219FC003201B6
:00000001FF
